{
    "_format": "hh-sol-artifact-1",
    "contractName": "MyEpicNFT",
    "sourceName": "contracts/MyEpicNFT.sol",
    "abi": [
        {
            "inputs": [],
            "stateMutability": "nonpayable",
            "type": "constructor"
        },
        {
            "anonymous": false,
            "inputs": [
                {
                    "indexed": true,
                    "internalType": "address",
                    "name": "owner",
                    "type": "address"
                },
                {
                    "indexed": true,
                    "internalType": "address",
                    "name": "approved",
                    "type": "address"
                },
                {
                    "indexed": true,
                    "internalType": "uint256",
                    "name": "tokenId",
                    "type": "uint256"
                }
            ],
            "name": "Approval",
            "type": "event"
        },
        {
            "anonymous": false,
            "inputs": [
                {
                    "indexed": true,
                    "internalType": "address",
                    "name": "owner",
                    "type": "address"
                },
                {
                    "indexed": true,
                    "internalType": "address",
                    "name": "operator",
                    "type": "address"
                },
                {
                    "indexed": false,
                    "internalType": "bool",
                    "name": "approved",
                    "type": "bool"
                }
            ],
            "name": "ApprovalForAll",
            "type": "event"
        },
        {
            "anonymous": false,
            "inputs": [
                {
                    "indexed": false,
                    "internalType": "address",
                    "name": "sender",
                    "type": "address"
                },
                {
                    "indexed": false,
                    "internalType": "uint256",
                    "name": "tokenId",
                    "type": "uint256"
                }
            ],
            "name": "NewEpicNFTMinted",
            "type": "event"
        },
        {
            "anonymous": false,
            "inputs": [
                {
                    "indexed": true,
                    "internalType": "address",
                    "name": "from",
                    "type": "address"
                },
                {
                    "indexed": true,
                    "internalType": "address",
                    "name": "to",
                    "type": "address"
                },
                {
                    "indexed": true,
                    "internalType": "uint256",
                    "name": "tokenId",
                    "type": "uint256"
                }
            ],
            "name": "Transfer",
            "type": "event"
        },
        {
            "inputs": [
                {
                    "internalType": "address",
                    "name": "to",
                    "type": "address"
                },
                {
                    "internalType": "uint256",
                    "name": "tokenId",
                    "type": "uint256"
                }
            ],
            "name": "approve",
            "outputs": [],
            "stateMutability": "nonpayable",
            "type": "function"
        },
        {
            "inputs": [
                {
                    "internalType": "address",
                    "name": "owner",
                    "type": "address"
                }
            ],
            "name": "balanceOf",
            "outputs": [
                {
                    "internalType": "uint256",
                    "name": "",
                    "type": "uint256"
                }
            ],
            "stateMutability": "view",
            "type": "function"
        },
        {
            "inputs": [
                {
                    "internalType": "uint256",
                    "name": "tokenId",
                    "type": "uint256"
                }
            ],
            "name": "getApproved",
            "outputs": [
                {
                    "internalType": "address",
                    "name": "",
                    "type": "address"
                }
            ],
            "stateMutability": "view",
            "type": "function"
        },
        {
            "inputs": [],
            "name": "getTotalNFTsMinted",
            "outputs": [
                {
                    "internalType": "uint256",
                    "name": "",
                    "type": "uint256"
                }
            ],
            "stateMutability": "view",
            "type": "function"
        },
        {
            "inputs": [
                {
                    "internalType": "address",
                    "name": "owner",
                    "type": "address"
                },
                {
                    "internalType": "address",
                    "name": "operator",
                    "type": "address"
                }
            ],
            "name": "isApprovedForAll",
            "outputs": [
                {
                    "internalType": "bool",
                    "name": "",
                    "type": "bool"
                }
            ],
            "stateMutability": "view",
            "type": "function"
        },
        {
            "inputs": [],
            "name": "makeAnEpicNFT",
            "outputs": [],
            "stateMutability": "nonpayable",
            "type": "function"
        },
        {
            "inputs": [],
            "name": "maxMint",
            "outputs": [
                {
                    "internalType": "uint8",
                    "name": "",
                    "type": "uint8"
                }
            ],
            "stateMutability": "view",
            "type": "function"
        },
        {
            "inputs": [],
            "name": "name",
            "outputs": [
                {
                    "internalType": "string",
                    "name": "",
                    "type": "string"
                }
            ],
            "stateMutability": "view",
            "type": "function"
        },
        {
            "inputs": [
                {
                    "internalType": "uint256",
                    "name": "tokenId",
                    "type": "uint256"
                }
            ],
            "name": "ownerOf",
            "outputs": [
                {
                    "internalType": "address",
                    "name": "",
                    "type": "address"
                }
            ],
            "stateMutability": "view",
            "type": "function"
        },
        {
            "inputs": [
                {
                    "internalType": "uint256",
                    "name": "tokenId",
                    "type": "uint256"
                }
            ],
            "name": "pickRandomColor",
            "outputs": [
                {
                    "internalType": "string",
                    "name": "",
                    "type": "string"
                }
            ],
            "stateMutability": "view",
            "type": "function"
        },
        {
            "inputs": [
                {
                    "internalType": "uint256",
                    "name": "tokenId",
                    "type": "uint256"
                }
            ],
            "name": "pickRandomFirstWord",
            "outputs": [
                {
                    "internalType": "string",
                    "name": "",
                    "type": "string"
                }
            ],
            "stateMutability": "view",
            "type": "function"
        },
        {
            "inputs": [
                {
                    "internalType": "uint256",
                    "name": "tokenId",
                    "type": "uint256"
                }
            ],
            "name": "pickRandomSecondWord",
            "outputs": [
                {
                    "internalType": "string",
                    "name": "",
                    "type": "string"
                }
            ],
            "stateMutability": "view",
            "type": "function"
        },
        {
            "inputs": [
                {
                    "internalType": "uint256",
                    "name": "tokenId",
                    "type": "uint256"
                }
            ],
            "name": "pickRandomThirdWord",
            "outputs": [
                {
                    "internalType": "string",
                    "name": "",
                    "type": "string"
                }
            ],
            "stateMutability": "view",
            "type": "function"
        },
        {
            "inputs": [
                {
                    "internalType": "address",
                    "name": "from",
                    "type": "address"
                },
                {
                    "internalType": "address",
                    "name": "to",
                    "type": "address"
                },
                {
                    "internalType": "uint256",
                    "name": "tokenId",
                    "type": "uint256"
                }
            ],
            "name": "safeTransferFrom",
            "outputs": [],
            "stateMutability": "nonpayable",
            "type": "function"
        },
        {
            "inputs": [
                {
                    "internalType": "address",
                    "name": "from",
                    "type": "address"
                },
                {
                    "internalType": "address",
                    "name": "to",
                    "type": "address"
                },
                {
                    "internalType": "uint256",
                    "name": "tokenId",
                    "type": "uint256"
                },
                {
                    "internalType": "bytes",
                    "name": "_data",
                    "type": "bytes"
                }
            ],
            "name": "safeTransferFrom",
            "outputs": [],
            "stateMutability": "nonpayable",
            "type": "function"
        },
        {
            "inputs": [
                {
                    "internalType": "address",
                    "name": "operator",
                    "type": "address"
                },
                {
                    "internalType": "bool",
                    "name": "approved",
                    "type": "bool"
                }
            ],
            "name": "setApprovalForAll",
            "outputs": [],
            "stateMutability": "nonpayable",
            "type": "function"
        },
        {
            "inputs": [
                {
                    "internalType": "bytes4",
                    "name": "interfaceId",
                    "type": "bytes4"
                }
            ],
            "name": "supportsInterface",
            "outputs": [
                {
                    "internalType": "bool",
                    "name": "",
                    "type": "bool"
                }
            ],
            "stateMutability": "view",
            "type": "function"
        },
        {
            "inputs": [],
            "name": "symbol",
            "outputs": [
                {
                    "internalType": "string",
                    "name": "",
                    "type": "string"
                }
            ],
            "stateMutability": "view",
            "type": "function"
        },
        {
            "inputs": [
                {
                    "internalType": "uint256",
                    "name": "tokenId",
                    "type": "uint256"
                }
            ],
            "name": "tokenURI",
            "outputs": [
                {
                    "internalType": "string",
                    "name": "",
                    "type": "string"
                }
            ],
            "stateMutability": "view",
            "type": "function"
        },
        {
            "inputs": [
                {
                    "internalType": "address",
                    "name": "from",
                    "type": "address"
                },
                {
                    "internalType": "address",
                    "name": "to",
                    "type": "address"
                },
                {
                    "internalType": "uint256",
                    "name": "tokenId",
                    "type": "uint256"
                }
            ],
            "name": "transferFrom",
            "outputs": [],
            "stateMutability": "nonpayable",
            "type": "function"
        }
    ],
    "bytecode": "0x608060405260405180610100016040528060d381526020016200477660d3913960089080519060200190620000369291906200082c565b50604051806080016040528060568152602001620048496056913960099080519060200190620000689291906200082c565b506040518060c001604052806040518060400160405280600281526020017f432300000000000000000000000000000000000000000000000000000000000081525081526020016040518060400160405280600381526020017f432b2b000000000000000000000000000000000000000000000000000000000081525081526020016040518060400160405280600681526020017f507974686f6e000000000000000000000000000000000000000000000000000081525081526020016040518060400160405280600a81526020017f4a6176615363726970740000000000000000000000000000000000000000000081525081526020016040518060400160405280600481526020017f4a6176610000000000000000000000000000000000000000000000000000000081525081526020016040518060400160405280600881526020017f536f6c6964697479000000000000000000000000000000000000000000000000815250815250600a906006620001e6929190620008bd565b506040518060c001604052806040518060400160405280600381526020017f526564000000000000000000000000000000000000000000000000000000000081525081526020016040518060400160405280600481526020017f426c75650000000000000000000000000000000000000000000000000000000081525081526020016040518060400160405280600681526020017f507572706c65000000000000000000000000000000000000000000000000000081525081526020016040518060400160405280600581526020017f477265656e00000000000000000000000000000000000000000000000000000081525081526020016040518060400160405280600581526020017f576869746500000000000000000000000000000000000000000000000000000081525081526020016040518060400160405280600581526020017f426c61636b000000000000000000000000000000000000000000000000000000815250815250600b90600662000364929190620008bd565b506040518060c001604052806040518060400160405280600581526020017f446176696400000000000000000000000000000000000000000000000000000081525081526020016040518060400160405280600581526020017f4c616e636500000000000000000000000000000000000000000000000000000081525081526020016040518060400160405280600481526020017f4d6f6a690000000000000000000000000000000000000000000000000000000081525081526020016040518060400160405280600581526020017f4a696d626f00000000000000000000000000000000000000000000000000000081525081526020016040518060400160405280600581526020017f536172616800000000000000000000000000000000000000000000000000000081525081526020016040518060400160405280600581526020017f5065676168000000000000000000000000000000000000000000000000000000815250815250600c906006620004e2929190620008bd565b506040518060c001604052806040518060400160405280600381526020017f726564000000000000000000000000000000000000000000000000000000000081525081526020016040518060400160405280600781526020017f233038433241380000000000000000000000000000000000000000000000000081525081526020016040518060400160405280600581526020017f626c61636b00000000000000000000000000000000000000000000000000000081525081526020016040518060400160405280600681526020017f79656c6c6f77000000000000000000000000000000000000000000000000000081525081526020016040518060400160405280600481526020017f626c75650000000000000000000000000000000000000000000000000000000081525081526020016040518060400160405280600581526020017f677265656e000000000000000000000000000000000000000000000000000000815250815250600d90600662000660929190620008bd565b503480156200066e57600080fd5b506040518060400160405280600981526020017f5371756172654e465400000000000000000000000000000000000000000000008152506040518060400160405280600681526020017f53515541524500000000000000000000000000000000000000000000000000008152508160009080519060200190620006f39291906200082c565b5080600190805190602001906200070c9291906200082c565b5050506200075a6040518060400160405280601e81526020017f54686973206973206d79204e465420636f6e74726163742e20576f61682100008152506200076060201b620012ab1760201c565b62000ade565b6200080081604051602401620007779190620009f2565b6040516020818303038152906040527f41304fac000000000000000000000000000000000000000000000000000000007bffffffffffffffffffffffffffffffffffffffffffffffffffffffff19166020820180517bffffffffffffffffffffffffffffffffffffffffffffffffffffffff83818316178352505050506200080360201b60201c565b50565b60008151905060006a636f6e736f6c652e6c6f679050602083016000808483855afa5050505050565b8280546200083a9062000a68565b90600052602060002090601f0160209004810192826200085e5760008555620008aa565b82601f106200087957805160ff1916838001178555620008aa565b82800160010185558215620008aa579182015b82811115620008a95782518255916020019190600101906200088c565b5b509050620008b9919062000924565b5090565b82805482825590600052602060002090810192821562000911579160200282015b8281111562000910578251829080519060200190620008ff9291906200082c565b5091602001919060010190620008de565b5b50905062000920919062000943565b5090565b5b808211156200093f57600081600090555060010162000925565b5090565b5b808211156200096757600081816200095d91906200096b565b5060010162000944565b5090565b508054620009799062000a68565b6000825580601f106200098d5750620009ae565b601f016020900490600052602060002090810190620009ad919062000924565b5b50565b6000620009be8262000a16565b620009ca818562000a21565b9350620009dc81856020860162000a32565b620009e78162000acd565b840191505092915050565b6000602082019050818103600083015262000a0e8184620009b1565b905092915050565b600081519050919050565b600082825260208201905092915050565b60005b8381101562000a5257808201518184015260208101905062000a35565b8381111562000a62576000848401525b50505050565b6000600282049050600182168062000a8157607f821691505b6020821081141562000a985762000a9762000a9e565b5b50919050565b7f4e487b7100000000000000000000000000000000000000000000000000000000600052602260045260246000fd5b6000601f19601f8301169050919050565b613c888062000aee6000396000f3fe608060405234801561001057600080fd5b506004361061012c5760003560e01c80637501f741116100ad578063b88d4fde11610071578063b88d4fde14610369578063c575757a14610385578063c87b56dd146103b5578063de9d132f146103e5578063e985e9c5146103ef5761012c565b80637501f741146102c357806395d89b41146102e1578063a22cb465146102ff578063b187301f1461031b578063b4c3b8be1461034b5761012c565b80632de38d68116100f45780632de38d68146101e757806342842e0e14610217578063514dc8c6146102335780636352211e1461026357806370a08231146102935761012c565b806301ffc9a71461013157806306fdde0314610161578063081812fc1461017f578063095ea7b3146101af57806323b872dd146101cb575b600080fd5b61014b600480360381019061014691906126d7565b61041f565b6040516101589190612e4f565b60405180910390f35b610169610501565b6040516101769190612e6a565b60405180910390f35b61019960048036038101906101949190612729565b610593565b6040516101a69190612dbf565b60405180910390f35b6101c960048036038101906101c4919061269b565b610618565b005b6101e560048036038101906101e09190612595565b610730565b005b61020160048036038101906101fc9190612729565b610790565b60405161020e9190612e6a565b60405180910390f35b610231600480360381019061022c9190612595565b6108ae565b005b61024d60048036038101906102489190612729565b6108ce565b60405161025a9190612e6a565b60405180910390f35b61027d60048036038101906102789190612729565b6109ec565b60405161028a9190612dbf565b60405180910390f35b6102ad60048036038101906102a89190612530565b610a9e565b6040516102ba91906130ca565b60405180910390f35b6102cb610b56565b6040516102d891906130e5565b60405180910390f35b6102e9610b5b565b6040516102f69190612e6a565b60405180910390f35b6103196004803603810190610314919061265f565b610bed565b005b61033560048036038101906103309190612729565b610c03565b6040516103429190612e6a565b60405180910390f35b610353610d21565b60405161036091906130ca565b60405180910390f35b610383600480360381019061037e91906125e4565b610d32565b005b61039f600480360381019061039a9190612729565b610d94565b6040516103ac9190612e6a565b60405180910390f35b6103cf60048036038101906103ca9190612729565b610eb2565b6040516103dc9190612e6a565b60405180910390f35b6103ed611004565b005b61040960048036038101906104049190612559565b611217565b6040516104169190612e4f565b60405180910390f35b60007f80ac58cd000000000000000000000000000000000000000000000000000000007bffffffffffffffffffffffffffffffffffffffffffffffffffffffff1916827bffffffffffffffffffffffffffffffffffffffffffffffffffffffff191614806104ea57507f5b5e139f000000000000000000000000000000000000000000000000000000007bffffffffffffffffffffffffffffffffffffffffffffffffffffffff1916827bffffffffffffffffffffffffffffffffffffffffffffffffffffffff1916145b806104fa57506104f982611344565b5b9050919050565b60606000805461051090613386565b80601f016020809104026020016040519081016040528092919081815260200182805461053c90613386565b80156105895780601f1061055e57610100808354040283529160200191610589565b820191906000526020600020905b81548152906001019060200180831161056c57829003601f168201915b5050505050905090565b600061059e826113ae565b6105dd576040517f08c379a00000000000000000000000000000000000000000000000000000000081526004016105d49061304a565b60405180910390fd5b6004600083815260200190815260200160002060009054906101000a900473ffffffffffffffffffffffffffffffffffffffff169050919050565b6000610623826109ec565b90508073ffffffffffffffffffffffffffffffffffffffff168373ffffffffffffffffffffffffffffffffffffffff161415610694576040517f08c379a000000000000000000000000000000000000000000000000000000000815260040161068b9061308a565b60405180910390fd5b8073ffffffffffffffffffffffffffffffffffffffff166106b361141a565b73ffffffffffffffffffffffffffffffffffffffff1614806106e257506106e1816106dc61141a565b611217565b5b610721576040517f08c379a000000000000000000000000000000000000000000000000000000000815260040161071890612f8a565b60405180910390fd5b61072b8383611422565b505050565b61074161073b61141a565b826114db565b610780576040517f08c379a0000000000000000000000000000000000000000000000000000000008152600401610777906130aa565b60405180910390fd5b61078b8383836115b9565b505050565b606060006107c46107a084611820565b6040516020016107b09190612d59565b6040516020818303038152906040526119cd565b9050600a80549050816107d79190613432565b9050600a8181548110610813577f4e487b7100000000000000000000000000000000000000000000000000000000600052603260045260246000fd5b90600052602060002001805461082890613386565b80601f016020809104026020016040519081016040528092919081815260200182805461085490613386565b80156108a15780601f10610876576101008083540402835291602001916108a1565b820191906000526020600020905b81548152906001019060200180831161088457829003601f168201915b5050505050915050919050565b6108c983838360405180602001604052806000815250610d32565b505050565b606060006109026108de84611820565b6040516020016108ee9190612d9d565b6040516020818303038152906040526119cd565b9050600d80549050816109159190613432565b9050600d8181548110610951577f4e487b7100000000000000000000000000000000000000000000000000000000600052603260045260246000fd5b90600052602060002001805461096690613386565b80601f016020809104026020016040519081016040528092919081815260200182805461099290613386565b80156109df5780601f106109b4576101008083540402835291602001916109df565b820191906000526020600020905b8154815290600101906020018083116109c257829003601f168201915b5050505050915050919050565b6000806002600084815260200190815260200160002060009054906101000a900473ffffffffffffffffffffffffffffffffffffffff169050600073ffffffffffffffffffffffffffffffffffffffff168173ffffffffffffffffffffffffffffffffffffffff161415610a95576040517f08c379a0000000000000000000000000000000000000000000000000000000008152600401610a8c90612fca565b60405180910390fd5b80915050919050565b60008073ffffffffffffffffffffffffffffffffffffffff168273ffffffffffffffffffffffffffffffffffffffff161415610b0f576040517f08c379a0000000000000000000000000000000000000000000000000000000008152600401610b0690612faa565b60405180910390fd5b600360008373ffffffffffffffffffffffffffffffffffffffff1673ffffffffffffffffffffffffffffffffffffffff168152602001908152602001600020549050919050565b606481565b606060018054610b6a90613386565b80601f0160208091040260200160405190810160405280929190818152602001828054610b9690613386565b8015610be35780601f10610bb857610100808354040283529160200191610be3565b820191906000526020600020905b815481529060010190602001808311610bc657829003601f168201915b5050505050905090565b610bff610bf861141a565b8383611a00565b5050565b60606000610c37610c1384611820565b604051602001610c239190612cf2565b6040516020818303038152906040526119cd565b9050600b8054905081610c4a9190613432565b9050600b8181548110610c86577f4e487b7100000000000000000000000000000000000000000000000000000000600052603260045260246000fd5b906000526020600020018054610c9b90613386565b80601f0160208091040260200160405190810160405280929190818152602001828054610cc790613386565b8015610d145780601f10610ce957610100808354040283529160200191610d14565b820191906000526020600020905b815481529060010190602001808311610cf757829003601f168201915b5050505050915050919050565b6000610d2d6007611b6d565b905090565b610d43610d3d61141a565b836114db565b610d82576040517f08c379a0000000000000000000000000000000000000000000000000000000008152600401610d79906130aa565b60405180910390fd5b610d8e84848484611b7b565b50505050565b60606000610dc8610da484611820565b604051602001610db49190612cd0565b6040516020818303038152906040526119cd565b9050600c8054905081610ddb9190613432565b9050600c8181548110610e17577f4e487b7100000000000000000000000000000000000000000000000000000000600052603260045260246000fd5b906000526020600020018054610e2c90613386565b80601f0160208091040260200160405190810160405280929190818152602001828054610e5890613386565b8015610ea55780601f10610e7a57610100808354040283529160200191610ea5565b820191906000526020600020905b815481529060010190602001808311610e8857829003601f168201915b5050505050915050919050565b6060610ebd826113ae565b610efc576040517f08c379a0000000000000000000000000000000000000000000000000000000008152600401610ef39061302a565b60405180910390fd5b6000600660008481526020019081526020016000208054610f1c90613386565b80601f0160208091040260200160405190810160405280929190818152602001828054610f4890613386565b8015610f955780601f10610f6a57610100808354040283529160200191610f95565b820191906000526020600020905b815481529060010190602001808311610f7857829003601f168201915b505050505090506000610fa6611bd7565b9050600081511415610fbc578192505050610fff565b600082511115610ff1578082604051602001610fd9929190612c32565b60405160208183030381529060405292505050610fff565b610ffa84611bee565b925050505b919050565b606460ff166110136007611b6d565b1061101d57600080fd5b60006110296007611b6d565b9050600061103682610790565b9050600061104383610c03565b9050600061105084610d94565b9050600083838360405160200161106993929190612c56565b60405160208183030381529060405290506000611085866108ce565b905060006008826009856040516020016110a29493929190612c87565b604051602081830303815290604052905060006110e7846110c284611c95565b6040516020016110d3929190612d14565b604051602081830303815290604052611c95565b90506000816040516020016110fc9190612d7b565b604051602081830303815290604052905061114b6040518060400160405280601581526020017f0a2d2d2d2d2d2d2d2d2d2d2d2d2d2d2d2d2d2d2d2d00000000000000000000008152506112ab565b611154816112ab565b6111926040518060400160405280601581526020017f2d2d2d2d2d2d2d2d2d2d2d2d2d2d2d2d2d2d2d2d0a00000000000000000000008152506112ab565b61119c338a611e53565b6111a68982611e71565b6111b06007611ee5565b6111d3604051806060016040528060258152602001613bee602591398a33611efb565b7febb98688741ffa4c7589bf325de30cf7becb63de567842e1ccdb6cb949fdc82c338a604051611204929190612e26565b60405180910390a1505050505050505050565b6000600560008473ffffffffffffffffffffffffffffffffffffffff1673ffffffffffffffffffffffffffffffffffffffff16815260200190815260200160002060008373ffffffffffffffffffffffffffffffffffffffff1673ffffffffffffffffffffffffffffffffffffffff16815260200190815260200160002060009054906101000a900460ff16905092915050565b611341816040516024016112bf9190612e6a565b6040516020818303038152906040527f41304fac000000000000000000000000000000000000000000000000000000007bffffffffffffffffffffffffffffffffffffffffffffffffffffffff19166020820180517bffffffffffffffffffffffffffffffffffffffffffffffffffffffff8381831617835250505050611f9a565b50565b60007f01ffc9a7000000000000000000000000000000000000000000000000000000007bffffffffffffffffffffffffffffffffffffffffffffffffffffffff1916827bffffffffffffffffffffffffffffffffffffffffffffffffffffffff1916149050919050565b60008073ffffffffffffffffffffffffffffffffffffffff166002600084815260200190815260200160002060009054906101000a900473ffffffffffffffffffffffffffffffffffffffff1673ffffffffffffffffffffffffffffffffffffffff1614159050919050565b600033905090565b816004600083815260200190815260200160002060006101000a81548173ffffffffffffffffffffffffffffffffffffffff021916908373ffffffffffffffffffffffffffffffffffffffff160217905550808273ffffffffffffffffffffffffffffffffffffffff16611495836109ec565b73ffffffffffffffffffffffffffffffffffffffff167f8c5be1e5ebec7d5bd14f71427d1e84f3dd0314c0f7b2291e5b200ac8c7c3b92560405160405180910390a45050565b60006114e6826113ae565b611525576040517f08c379a000000000000000000000000000000000000000000000000000000000815260040161151c90612f6a565b60405180910390fd5b6000611530836109ec565b90508073ffffffffffffffffffffffffffffffffffffffff168473ffffffffffffffffffffffffffffffffffffffff16148061159f57508373ffffffffffffffffffffffffffffffffffffffff1661158784610593565b73ffffffffffffffffffffffffffffffffffffffff16145b806115b057506115af8185611217565b5b91505092915050565b8273ffffffffffffffffffffffffffffffffffffffff166115d9826109ec565b73ffffffffffffffffffffffffffffffffffffffff161461162f576040517f08c379a000000000000000000000000000000000000000000000000000000000815260040161162690612eea565b60405180910390fd5b600073ffffffffffffffffffffffffffffffffffffffff168273ffffffffffffffffffffffffffffffffffffffff16141561169f576040517f08c379a000000000000000000000000000000000000000000000000000000000815260040161169690612f2a565b60405180910390fd5b6116aa838383611fc3565b6116b5600082611422565b6001600360008573ffffffffffffffffffffffffffffffffffffffff1673ffffffffffffffffffffffffffffffffffffffff1681526020019081526020016000206000828254611705919061328f565b925050819055506001600360008473ffffffffffffffffffffffffffffffffffffffff1673ffffffffffffffffffffffffffffffffffffffff168152602001908152602001600020600082825461175c91906131ae565b92505081905550816002600083815260200190815260200160002060006101000a81548173ffffffffffffffffffffffffffffffffffffffff021916908373ffffffffffffffffffffffffffffffffffffffff160217905550808273ffffffffffffffffffffffffffffffffffffffff168473ffffffffffffffffffffffffffffffffffffffff167fddf252ad1be2c89b69c2b068fc378daa952ba7f163c4a11628f55a4df523b3ef60405160405180910390a461181b838383611fc8565b505050565b60606000821415611868576040518060400160405280600181526020017f300000000000000000000000000000000000000000000000000000000000000081525090506119c8565b600082905060005b6000821461189a578080611883906133e9565b915050600a826118939190613204565b9150611870565b60008167ffffffffffffffff8111156118dc577f4e487b7100000000000000000000000000000000000000000000000000000000600052604160045260246000fd5b6040519080825280601f01601f19166020018201604052801561190e5781602001600182028036833780820191505090505b5090505b600085146119c157600182611927919061328f565b9150600a856119369190613432565b603061194291906131ae565b60f81b81838151811061197e577f4e487b7100000000000000000000000000000000000000000000000000000000600052603260045260246000fd5b60200101907effffffffffffffffffffffffffffffffffffffffffffffffffffffffffffff1916908160001a905350600a856119ba9190613204565b9450611912565b8093505050505b919050565b6000816040516020016119e09190612c1b565b6040516020818303038152906040528051906020012060001c9050919050565b8173ffffffffffffffffffffffffffffffffffffffff168373ffffffffffffffffffffffffffffffffffffffff161415611a6f576040517f08c379a0000000000000000000000000000000000000000000000000000000008152600401611a6690612f4a565b60405180910390fd5b80600560008573ffffffffffffffffffffffffffffffffffffffff1673ffffffffffffffffffffffffffffffffffffffff16815260200190815260200160002060008473ffffffffffffffffffffffffffffffffffffffff1673ffffffffffffffffffffffffffffffffffffffff16815260200190815260200160002060006101000a81548160ff0219169083151502179055508173ffffffffffffffffffffffffffffffffffffffff168373ffffffffffffffffffffffffffffffffffffffff167f17307eab39ab6107e8899845ad3d59bd9653f200f220920489ca2b5937696c3183604051611b609190612e4f565b60405180910390a3505050565b600081600001549050919050565b611b868484846115b9565b611b9284848484611fcd565b611bd1576040517f08c379a0000000000000000000000000000000000000000000000000000000008152600401611bc890612eca565b60405180910390fd5b50505050565b606060405180602001604052806000815250905090565b6060611bf9826113ae565b611c38576040517f08c379a0000000000000000000000000000000000000000000000000000000008152600401611c2f9061306a565b60405180910390fd5b6000611c42611bd7565b90506000815111611c625760405180602001604052806000815250611c8d565b80611c6c84611820565b604051602001611c7d929190612c32565b6040516020818303038152906040525b915050919050565b60606000825190506000811415611cbe5760405180602001604052806000815250915050611e4e565b60006003600283611ccf91906131ae565b611cd99190613204565b6004611ce59190613235565b90506000602082611cf691906131ae565b67ffffffffffffffff811115611d35577f4e487b7100000000000000000000000000000000000000000000000000000000600052604160045260246000fd5b6040519080825280601f01601f191660200182016040528015611d675781602001600182028036833780820191505090505b5090506000604051806060016040528060408152602001613c13604091399050600181016020830160005b86811015611e0b5760038101905062ffffff818a015116603f8160121c168401518060081b905060ff603f83600c1c1686015116810190508060081b905060ff603f8360061c1686015116810190508060081b905060ff603f831686015116810190508060e01b90508084526004840193505050611d92565b506003860660018114611e255760028114611e3557611e40565b613d3d60f01b6002830352611e40565b603d60f81b60018303525b508484525050819450505050505b919050565b611e6d828260405180602001604052806000815250612164565b5050565b611e7a826113ae565b611eb9576040517f08c379a0000000000000000000000000000000000000000000000000000000008152600401611eb090612fea565b60405180910390fd5b80600660008481526020019081526020016000209080519060200190611ee09291906123bc565b505050565b6001816000016000828254019250508190555050565b611f95838383604051602401611f1393929190612e8c565b6040516020818303038152906040527fe3849f79000000000000000000000000000000000000000000000000000000007bffffffffffffffffffffffffffffffffffffffffffffffffffffffff19166020820180517bffffffffffffffffffffffffffffffffffffffffffffffffffffffff8381831617835250505050611f9a565b505050565b60008151905060006a636f6e736f6c652e6c6f679050602083016000808483855afa5050505050565b505050565b505050565b6000611fee8473ffffffffffffffffffffffffffffffffffffffff166121bf565b15612157578373ffffffffffffffffffffffffffffffffffffffff1663150b7a0261201761141a565b8786866040518563ffffffff1660e01b81526004016120399493929190612dda565b602060405180830381600087803b15801561205357600080fd5b505af192505050801561208457506040513d601f19601f820116820180604052508101906120819190612700565b60015b612107573d80600081146120b4576040519150601f19603f3d011682016040523d82523d6000602084013e6120b9565b606091505b506000815114156120ff576040517f08c379a00000000000000000000000000000000000000000000000000000000081526004016120f690612eca565b60405180910390fd5b805181602001fd5b63150b7a0260e01b7bffffffffffffffffffffffffffffffffffffffffffffffffffffffff1916817bffffffffffffffffffffffffffffffffffffffffffffffffffffffff19161491505061215c565b600190505b949350505050565b61216e83836121e2565b61217b6000848484611fcd565b6121ba576040517f08c379a00000000000000000000000000000000000000000000000000000000081526004016121b190612eca565b60405180910390fd5b505050565b6000808273ffffffffffffffffffffffffffffffffffffffff163b119050919050565b600073ffffffffffffffffffffffffffffffffffffffff168273ffffffffffffffffffffffffffffffffffffffff161415612252576040517f08c379a00000000000000000000000000000000000000000000000000000000081526004016122499061300a565b60405180910390fd5b61225b816113ae565b1561229b576040517f08c379a000000000000000000000000000000000000000000000000000000000815260040161229290612f0a565b60405180910390fd5b6122a760008383611fc3565b6001600360008473ffffffffffffffffffffffffffffffffffffffff1673ffffffffffffffffffffffffffffffffffffffff16815260200190815260200160002060008282546122f791906131ae565b92505081905550816002600083815260200190815260200160002060006101000a81548173ffffffffffffffffffffffffffffffffffffffff021916908373ffffffffffffffffffffffffffffffffffffffff160217905550808273ffffffffffffffffffffffffffffffffffffffff16600073ffffffffffffffffffffffffffffffffffffffff167fddf252ad1be2c89b69c2b068fc378daa952ba7f163c4a11628f55a4df523b3ef60405160405180910390a46123b860008383611fc8565b5050565b8280546123c890613386565b90600052602060002090601f0160209004810192826123ea5760008555612431565b82601f1061240357805160ff1916838001178555612431565b82800160010185558215612431579182015b82811115612430578251825591602001919060010190612415565b5b50905061243e9190612442565b5090565b5b8082111561245b576000816000905550600101612443565b5090565b600061247261246d84613125565b613100565b90508281526020810184848401111561248a57600080fd5b612495848285613344565b509392505050565b6000813590506124ac81613b91565b92915050565b6000813590506124c181613ba8565b92915050565b6000813590506124d681613bbf565b92915050565b6000815190506124eb81613bbf565b92915050565b600082601f83011261250257600080fd5b813561251284826020860161245f565b91505092915050565b60008135905061252a81613bd6565b92915050565b60006020828403121561254257600080fd5b60006125508482850161249d565b91505092915050565b6000806040838503121561256c57600080fd5b600061257a8582860161249d565b925050602061258b8582860161249d565b9150509250929050565b6000806000606084860312156125aa57600080fd5b60006125b88682870161249d565b93505060206125c98682870161249d565b92505060406125da8682870161251b565b9150509250925092565b600080600080608085870312156125fa57600080fd5b60006126088782880161249d565b94505060206126198782880161249d565b935050604061262a8782880161251b565b925050606085013567ffffffffffffffff81111561264757600080fd5b612653878288016124f1565b91505092959194509250565b6000806040838503121561267257600080fd5b60006126808582860161249d565b9250506020612691858286016124b2565b9150509250929050565b600080604083850312156126ae57600080fd5b60006126bc8582860161249d565b92505060206126cd8582860161251b565b9150509250929050565b6000602082840312156126e957600080fd5b60006126f7848285016124c7565b91505092915050565b60006020828403121561271257600080fd5b6000612720848285016124dc565b91505092915050565b60006020828403121561273b57600080fd5b60006127498482850161251b565b91505092915050565b61275b816132c3565b82525050565b61276a816132d5565b82525050565b600061277b8261316b565b6127858185613181565b9350612795818560208601613353565b61279e8161351f565b840191505092915050565b60006127b482613176565b6127be8185613192565b93506127ce818560208601613353565b6127d78161351f565b840191505092915050565b60006127ed82613176565b6127f781856131a3565b9350612807818560208601613353565b80840191505092915050565b6000815461282081613386565b61282a81866131a3565b94506001821660008114612845576001811461285657612889565b60ff19831686528186019350612889565b61285f85613156565b60005b8381101561288157815481890152600182019150602081019050612862565b838801955050505b50505092915050565b600061289f603283613192565b91506128aa82613530565b604082019050919050565b60006128c2602583613192565b91506128cd8261357f565b604082019050919050565b60006128e5601c83613192565b91506128f0826135ce565b602082019050919050565b6000612908600a836131a3565b9150612913826135f7565b600a82019050919050565b600061292b602483613192565b915061293682613620565b604082019050919050565b600061294e601983613192565b91506129598261366f565b602082019050919050565b60006129716063836131a3565b915061297c82613698565b606382019050919050565b6000612994600b836131a3565b915061299f82613733565b600b82019050919050565b60006129b7602c83613192565b91506129c28261375c565b604082019050919050565b60006129da600d836131a3565b91506129e5826137ab565b600d82019050919050565b60006129fd603883613192565b9150612a08826137d4565b604082019050919050565b6000612a20602a83613192565b9150612a2b82613823565b604082019050919050565b6000612a43602983613192565b9150612a4e82613872565b604082019050919050565b6000612a66602e83613192565b9150612a71826138c1565b604082019050919050565b6000612a896002836131a3565b9150612a9482613910565b600282019050919050565b6000612aac602083613192565b9150612ab782613939565b602082019050919050565b6000612acf603183613192565b9150612ada82613962565b604082019050919050565b6000612af2602c83613192565b9150612afd826139b1565b604082019050919050565b6000612b15602f83613192565b9150612b2082613a00565b604082019050919050565b6000612b38600a836131a3565b9150612b4382613a4f565b600a82019050919050565b6000612b5b602183613192565b9150612b6682613a78565b604082019050919050565b6000612b7e600a836131a3565b9150612b8982613ac7565b600a82019050919050565b6000612ba1601d836131a3565b9150612bac82613af0565b601d82019050919050565b6000612bc4603183613192565b9150612bcf82613b19565b604082019050919050565b6000612be76005836131a3565b9150612bf282613b68565b600582019050919050565b612c068161332d565b82525050565b612c1581613337565b82525050565b6000612c2782846127e2565b915081905092915050565b6000612c3e82856127e2565b9150612c4a82846127e2565b91508190509392505050565b6000612c6282866127e2565b9150612c6e82856127e2565b9150612c7a82846127e2565b9150819050949350505050565b6000612c938287612813565b9150612c9f82866127e2565b9150612cab8285612813565b9150612cb782846127e2565b9150612cc2826129cd565b915081905095945050505050565b6000612cdb826128fb565b9150612ce782846127e2565b915081905092915050565b6000612cfd82612987565b9150612d0982846127e2565b915081905092915050565b6000612d1f82612b2b565b9150612d2b82856127e2565b9150612d3682612964565b9150612d4282846127e2565b9150612d4d82612a7c565b91508190509392505050565b6000612d6482612b71565b9150612d7082846127e2565b915081905092915050565b6000612d8682612b94565b9150612d9282846127e2565b915081905092915050565b6000612da882612bda565b9150612db482846127e2565b915081905092915050565b6000602082019050612dd46000830184612752565b92915050565b6000608082019050612def6000830187612752565b612dfc6020830186612752565b612e096040830185612bfd565b8181036060830152612e1b8184612770565b905095945050505050565b6000604082019050612e3b6000830185612752565b612e486020830184612bfd565b9392505050565b6000602082019050612e646000830184612761565b92915050565b60006020820190508181036000830152612e8481846127a9565b905092915050565b60006060820190508181036000830152612ea681866127a9565b9050612eb56020830185612bfd565b612ec26040830184612752565b949350505050565b60006020820190508181036000830152612ee381612892565b9050919050565b60006020820190508181036000830152612f03816128b5565b9050919050565b60006020820190508181036000830152612f23816128d8565b9050919050565b60006020820190508181036000830152612f438161291e565b9050919050565b60006020820190508181036000830152612f6381612941565b9050919050565b60006020820190508181036000830152612f83816129aa565b9050919050565b60006020820190508181036000830152612fa3816129f0565b9050919050565b60006020820190508181036000830152612fc381612a13565b9050919050565b60006020820190508181036000830152612fe381612a36565b9050919050565b6000602082019050818103600083015261300381612a59565b9050919050565b6000602082019050818103600083015261302381612a9f565b9050919050565b6000602082019050818103600083015261304381612ac2565b9050919050565b6000602082019050818103600083015261306381612ae5565b9050919050565b6000602082019050818103600083015261308381612b08565b9050919050565b600060208201905081810360008301526130a381612b4e565b9050919050565b600060208201905081810360008301526130c381612bb7565b9050919050565b60006020820190506130df6000830184612bfd565b92915050565b60006020820190506130fa6000830184612c0c565b92915050565b600061310a61311b565b905061311682826133b8565b919050565b6000604051905090565b600067ffffffffffffffff8211156131405761313f6134f0565b5b6131498261351f565b9050602081019050919050565b60008190508160005260206000209050919050565b600081519050919050565b600081519050919050565b600082825260208201905092915050565b600082825260208201905092915050565b600081905092915050565b60006131b98261332d565b91506131c48361332d565b9250827fffffffffffffffffffffffffffffffffffffffffffffffffffffffffffffffff038211156131f9576131f8613463565b5b828201905092915050565b600061320f8261332d565b915061321a8361332d565b92508261322a57613229613492565b5b828204905092915050565b60006132408261332d565b915061324b8361332d565b9250817fffffffffffffffffffffffffffffffffffffffffffffffffffffffffffffffff048311821515161561328457613283613463565b5b828202905092915050565b600061329a8261332d565b91506132a58361332d565b9250828210156132b8576132b7613463565b5b828203905092915050565b60006132ce8261330d565b9050919050565b60008115159050919050565b60007fffffffff0000000000000000000000000000000000000000000000000000000082169050919050565b600073ffffffffffffffffffffffffffffffffffffffff82169050919050565b6000819050919050565b600060ff82169050919050565b82818337600083830152505050565b60005b83811015613371578082015181840152602081019050613356565b83811115613380576000848401525b50505050565b6000600282049050600182168061339e57607f821691505b602082108114156133b2576133b16134c1565b5b50919050565b6133c18261351f565b810181811067ffffffffffffffff821117156133e0576133df6134f0565b5b80604052505050565b60006133f48261332d565b91507fffffffffffffffffffffffffffffffffffffffffffffffffffffffffffffffff82141561342757613426613463565b5b600182019050919050565b600061343d8261332d565b91506134488361332d565b92508261345857613457613492565b5b828206905092915050565b7f4e487b7100000000000000000000000000000000000000000000000000000000600052601160045260246000fd5b7f4e487b7100000000000000000000000000000000000000000000000000000000600052601260045260246000fd5b7f4e487b7100000000000000000000000000000000000000000000000000000000600052602260045260246000fd5b7f4e487b7100000000000000000000000000000000000000000000000000000000600052604160045260246000fd5b6000601f19601f8301169050919050565b7f4552433732313a207472616e7366657220746f206e6f6e20455243373231526560008201527f63656976657220696d706c656d656e7465720000000000000000000000000000602082015250565b7f4552433732313a207472616e736665722066726f6d20696e636f72726563742060008201527f6f776e6572000000000000000000000000000000000000000000000000000000602082015250565b7f4552433732313a20746f6b656e20616c7265616479206d696e74656400000000600082015250565b7f54484952445f574f524400000000000000000000000000000000000000000000600082015250565b7f4552433732313a207472616e7366657220746f20746865207a65726f2061646460008201527f7265737300000000000000000000000000000000000000000000000000000000602082015250565b7f4552433732313a20617070726f766520746f2063616c6c657200000000000000600082015250565b7f222c20226465736372697074696f6e223a20224120686967686c79206163636c60008201527f61696d656420636f6c6c656374696f6e206f6620737175617265732e222c202260208201527f696d616765223a2022646174613a696d6167652f7376672b786d6c3b6261736560408201527f36342c0000000000000000000000000000000000000000000000000000000000606082015250565b7f5345434f4e445f574f5244000000000000000000000000000000000000000000600082015250565b7f4552433732313a206f70657261746f7220717565727920666f72206e6f6e657860008201527f697374656e7420746f6b656e0000000000000000000000000000000000000000602082015250565b7f3c2f746578743e3c2f7376673e00000000000000000000000000000000000000600082015250565b7f4552433732313a20617070726f76652063616c6c6572206973206e6f74206f7760008201527f6e6572206e6f7220617070726f76656420666f7220616c6c0000000000000000602082015250565b7f4552433732313a2062616c616e636520717565727920666f7220746865207a6560008201527f726f206164647265737300000000000000000000000000000000000000000000602082015250565b7f4552433732313a206f776e657220717565727920666f72206e6f6e657869737460008201527f656e7420746f6b656e0000000000000000000000000000000000000000000000602082015250565b7f45524337323155524953746f726167653a2055524920736574206f66206e6f6e60008201527f6578697374656e7420746f6b656e000000000000000000000000000000000000602082015250565b7f227d000000000000000000000000000000000000000000000000000000000000600082015250565b7f4552433732313a206d696e7420746f20746865207a65726f2061646472657373600082015250565b7f45524337323155524953746f726167653a2055524920717565727920666f722060008201527f6e6f6e6578697374656e7420746f6b656e000000000000000000000000000000602082015250565b7f4552433732313a20617070726f76656420717565727920666f72206e6f6e657860008201527f697374656e7420746f6b656e0000000000000000000000000000000000000000602082015250565b7f4552433732314d657461646174613a2055524920717565727920666f72206e6f60008201527f6e6578697374656e7420746f6b656e0000000000000000000000000000000000602082015250565b7f7b226e616d65223a202200000000000000000000000000000000000000000000600082015250565b7f4552433732313a20617070726f76616c20746f2063757272656e74206f776e6560008201527f7200000000000000000000000000000000000000000000000000000000000000602082015250565b7f46495253545f574f524400000000000000000000000000000000000000000000600082015250565b7f646174613a6170706c69636174696f6e2f6a736f6e3b6261736536342c000000600082015250565b7f4552433732313a207472616e736665722063616c6c6572206973206e6f74206f60008201527f776e6572206e6f7220617070726f766564000000000000000000000000000000602082015250565b7f434f4c4f52000000000000000000000000000000000000000000000000000000600082015250565b613b9a816132c3565b8114613ba557600080fd5b50565b613bb1816132d5565b8114613bbc57600080fd5b50565b613bc8816132e1565b8114613bd357600080fd5b50565b613bdf8161332d565b8114613bea57600080fd5b5056fe416e204e465420772f20494420257320686173206265656e206d696e74656420746f2025734142434445464748494a4b4c4d4e4f505152535455565758595a6162636465666768696a6b6c6d6e6f707172737475767778797a303132333435363738392b2fa26469706673582212203a6b514acb8b01603724b7fd0d69e43b11eab80065c7ffacb841b14e64dce97c64736f6c634300080100333c73766720786d6c6e733d27687474703a2f2f7777772e77332e6f72672f323030302f73766727207072657365727665417370656374526174696f3d27784d696e594d696e206d656574272076696577426f783d273020302033353020333530273e3c7374796c653e2e62617365207b2066696c6c3a2077686974653b20666f6e742d66616d696c793a2073657269663b20666f6e742d73697a653a20323470783b207d3c2f7374796c653e3c726563742077696474683d273130302527206865696768743d2731303025272066696c6c3d27272f3e3c7465787420783d273530252720793d273530252720636c6173733d27626173652720646f6d696e616e742d626173656c696e653d276d6964646c652720746578742d616e63686f723d276d6964646c65273e",
    "linkReferences": {},
    "deployedLinkReferences": {}
}